:100000000C942A000C941E010C94D7000C94F1005F
:100010000C9447000C9447000C9447000C944F003C
:100020000C9447000C9447000C9447000C94470034
:100030000C9447000C9447000C9447000C94470024
:100040000C9447000C9447000C9447000C94470014
:100050000C94470011241FBECFE5D8E0DEBFCDBF12
:1000600010E0A0E6B0E0E8E7F4E002C005900D92F1
:10007000A236B107D9F720E0A2E6B0E001C01D9298
:10008000A837B207E1F70E943E010C943A020C94A3
:10009000000012BE8CBFBB9A8AE683BF08951F92F0
:1000A0000F920FB60F9211242F933F934F935F93AC
:1000B0006F937F938F939F93AF93BF93EF93FF9330
:1000C00080916800909169000196909369008093F7
:1000D000680080916800909169002AE030E0B901E1
:1000E0000E94260290936B0080936A0080916800C2
:1000F00090916900B9010E942602CB01E6E0F0E090
:10010000BF010E94260290936D0080936C00809145
:100110006800909169006CE370E00E942602CB01B8
:10012000B9010E94260290936F0080936E00809127
:1001300068009091690068E572E00E942602CB0198
:10014000BF010E94260290937100809370008091FD
:1001500068009091690060E17EE00E942602CB0178
:10016000B9010E942602909373008093720020913F
:1001700068003091690081E090E0203A3C4810F43A
:1001800090E080E09093750080937400FF91EF9170
:10019000BF91AF919F918F917F916F915F914F919F
:1001A0003F912F910F900FBE0F901F9018951F92A7
:1001B0000F920FB60F9211242F938F939F938091DC
:1001C00076009091770021E08227909377008093CA
:1001D00076009F918F912F910F900FBE0F901F90DF
:1001E00018951F920F920FB60F9211248F939F9321
:1001F00080916000909161008E3191059CF049974B
:1002000085309105B1F090936100809360008091FA
:100210006000909161001816190624F01092610098
:10022000109260009F918F910F900FBE0F901F90C2
:1002300018951092610010926000E9CF1F920F9202
:100240000FB60F9211248F939F938091600090912D
:1002500061008F3F910544F449968F3F91055CF40E
:1002600090936100809360009F918F910F900FBEDB
:100270000F901F9018958FEF90E0F2CF8FE084BB26
:100280008FEF8ABB8B9A8BE087BB8B9887B38F7C71
:1002900087BB8DE08EBD1DBC1CBC88EE93E09BBD72
:1002A0008ABD89B7806189BF88E08FBD8FB78068BC
:1002B0008FBF8B98939A8BB780688BBF85B78C6004
:1002C00085BF8FB780688FBF8A98929A8BB78064FA
:1002D0008BBF85B7826085BF8FB780688FBF8A98D4
:1002E000929A8BB780628BBF84B78F7B84BF8FB7A6
:1002F00080688FBFC2E8D0E080917600909177004F
:10030000019709F081C0C09A8091600090916100CE
:100310000E94490085B32091740030917500807F60
:100320002F70822B85BBD89A8FE891E00197F1F767
:1003300000C00000D898D99A85B3209172003091FE
:100340007300807F2F70822B85BB8FE891E001972F
:10035000F1F700C00000D998DA9A85B320917000B7
:1003600030917100807F2F70822B85BB8FE891E0E8
:100370000197F1F700C00000DA98DB9A85B320916D
:100380006E0030916F00807F2F70822B85BB8FE8CD
:1003900091E00197F1F700C00000DB98DC9A85B38B
:1003A00020916C0030916D00807F2F70822B85BB77
:1003B0008FE891E00197F1F700C00000DC98DD9A2A
:1003C00085B320916A0030916B00807F2F70822B63
:1003D00085BB8FE891E00197F1F700C00000DD9840
:1003E000B59B23C088B38C7F88BB109261001092AC
:1003F000600090E080E00E9449008EB58A7F8EBD4B
:1004000083B78D7F83BF78CF8091760090917700FE
:10041000892B31F71BBA1092690010926800C098BE
:1004200090E080E00E944900DBCFB49B65CFC09A8A
:10043000D0936100C093600082E890E00E94490080
:100440008EB585608EBD83B78260DCCFAA1BBB1BD7
:1004500051E107C0AA1FBB1FA617B70710F0A61BC4
:10046000B70B881F991F5A95A9F780959095BC01E5
:08047000CD010895F894FFCFBF
:02047800820000
:00000001FF
